{
  "contractName": "Lottery",
  "abi": [
    {
      "inputs": [
        {
          "internalType": "string",
          "name": "name",
          "type": "string"
        },
        {
          "internalType": "address",
          "name": "creator",
          "type": "address"
        }
      ],
      "stateMutability": "nonpayable",
      "type": "constructor"
    },
    {
      "anonymous": false,
      "inputs": [
        {
          "indexed": false,
          "internalType": "string",
          "name": "name",
          "type": "string"
        },
        {
          "indexed": false,
          "internalType": "uint256",
          "name": "entryCount",
          "type": "uint256"
        }
      ],
      "name": "PlayerParticipated",
      "type": "event"
    },
    {
      "anonymous": false,
      "inputs": [
        {
          "indexed": false,
          "internalType": "string",
          "name": "name",
          "type": "string"
        },
        {
          "indexed": false,
          "internalType": "uint256",
          "name": "entryCount",
          "type": "uint256"
        }
      ],
      "name": "WinnerDeclared",
      "type": "event"
    },
    {
      "inputs": [
        {
          "internalType": "uint256",
          "name": "",
          "type": "uint256"
        }
      ],
      "name": "addressIndexes",
      "outputs": [
        {
          "internalType": "address",
          "name": "",
          "type": "address"
        }
      ],
      "stateMutability": "view",
      "type": "function"
    },
    {
      "inputs": [],
      "name": "ethToParticipate",
      "outputs": [
        {
          "internalType": "uint256",
          "name": "",
          "type": "uint256"
        }
      ],
      "stateMutability": "view",
      "type": "function"
    },
    {
      "inputs": [],
      "name": "isLotteryLive",
      "outputs": [
        {
          "internalType": "bool",
          "name": "",
          "type": "bool"
        }
      ],
      "stateMutability": "view",
      "type": "function"
    },
    {
      "inputs": [
        {
          "internalType": "uint256",
          "name": "",
          "type": "uint256"
        }
      ],
      "name": "lotteryBag",
      "outputs": [
        {
          "internalType": "address payable",
          "name": "",
          "type": "address"
        }
      ],
      "stateMutability": "view",
      "type": "function"
    },
    {
      "inputs": [],
      "name": "lotteryName",
      "outputs": [
        {
          "internalType": "string",
          "name": "",
          "type": "string"
        }
      ],
      "stateMutability": "view",
      "type": "function"
    },
    {
      "inputs": [],
      "name": "manager",
      "outputs": [
        {
          "internalType": "address",
          "name": "",
          "type": "address"
        }
      ],
      "stateMutability": "view",
      "type": "function"
    },
    {
      "inputs": [],
      "name": "maxEntriesForPlayer",
      "outputs": [
        {
          "internalType": "uint256",
          "name": "",
          "type": "uint256"
        }
      ],
      "stateMutability": "view",
      "type": "function"
    },
    {
      "inputs": [],
      "name": "winner",
      "outputs": [
        {
          "internalType": "string",
          "name": "name",
          "type": "string"
        },
        {
          "internalType": "uint256",
          "name": "entryCount",
          "type": "uint256"
        },
        {
          "internalType": "uint256",
          "name": "index",
          "type": "uint256"
        },
        {
          "internalType": "address",
          "name": "adrs",
          "type": "address"
        }
      ],
      "stateMutability": "view",
      "type": "function"
    },
    {
      "stateMutability": "payable",
      "type": "receive"
    },
    {
      "inputs": [
        {
          "internalType": "string",
          "name": "playerName",
          "type": "string"
        }
      ],
      "name": "participate",
      "outputs": [],
      "stateMutability": "payable",
      "type": "function"
    },
    {
      "inputs": [
        {
          "internalType": "uint256",
          "name": "maxEntries",
          "type": "uint256"
        },
        {
          "internalType": "uint256",
          "name": "ethRequired",
          "type": "uint256"
        }
      ],
      "name": "activateLottery",
      "outputs": [],
      "stateMutability": "nonpayable",
      "type": "function"
    },
    {
      "inputs": [],
      "name": "declareWinner",
      "outputs": [],
      "stateMutability": "nonpayable",
      "type": "function"
    },
    {
      "inputs": [],
      "name": "getPlayers",
      "outputs": [
        {
          "internalType": "address[]",
          "name": "",
          "type": "address[]"
        }
      ],
      "stateMutability": "view",
      "type": "function"
    },
    {
      "inputs": [],
      "name": "getLotterySoldCount",
      "outputs": [
        {
          "internalType": "uint256",
          "name": "",
          "type": "uint256"
        }
      ],
      "stateMutability": "view",
      "type": "function"
    },
    {
      "inputs": [
        {
          "internalType": "address",
          "name": "playerAddress",
          "type": "address"
        }
      ],
      "name": "getPlayer",
      "outputs": [
        {
          "internalType": "string",
          "name": "",
          "type": "string"
        },
        {
          "internalType": "uint256",
          "name": "",
          "type": "uint256"
        }
      ],
      "stateMutability": "view",
      "type": "function"
    },
    {
      "inputs": [],
      "name": "getWinningPrice",
      "outputs": [
        {
          "internalType": "uint256",
          "name": "",
          "type": "uint256"
        }
      ],
      "stateMutability": "view",
      "type": "function"
    },
    {
      "inputs": [],
      "name": "getCurrentWinner",
      "outputs": [
        {
          "internalType": "string",
          "name": "",
          "type": "string"
        },
        {
          "internalType": "uint256",
          "name": "",
          "type": "uint256"
        },
        {
          "internalType": "address",
          "name": "",
          "type": "address"
        }
      ],
      "stateMutability": "view",
      "type": "function"
    }
  ],
  "bytecode": "0x60806040523480156200001157600080fd5b50604051620026953803806200269583398181016040528101906200003791906200028a565b80600160006101000a81548173ffffffffffffffffffffffffffffffffffffffff021916908373ffffffffffffffffffffffffffffffffffffffff160217905550816000908162000089919062000541565b50505062000628565b6000604051905090565b600080fd5b600080fd5b600080fd5b600080fd5b6000601f19601f8301169050919050565b7f4e487b7100000000000000000000000000000000000000000000000000000000600052604160045260246000fd5b620000fb82620000b0565b810181811067ffffffffffffffff821117156200011d576200011c620000c1565b5b80604052505050565b60006200013262000092565b9050620001408282620000f0565b919050565b600067ffffffffffffffff821115620001635762000162620000c1565b5b6200016e82620000b0565b9050602081019050919050565b60005b838110156200019b5780820151818401526020810190506200017e565b60008484015250505050565b6000620001be620001b88462000145565b62000126565b905082815260208101848484011115620001dd57620001dc620000ab565b5b620001ea8482856200017b565b509392505050565b600082601f8301126200020a5762000209620000a6565b5b81516200021c848260208601620001a7565b91505092915050565b600073ffffffffffffffffffffffffffffffffffffffff82169050919050565b6000620002528262000225565b9050919050565b620002648162000245565b81146200027057600080fd5b50565b600081519050620002848162000259565b92915050565b60008060408385031215620002a457620002a36200009c565b5b600083015167ffffffffffffffff811115620002c557620002c4620000a1565b5b620002d385828601620001f2565b9250506020620002e68582860162000273565b9150509250929050565b600081519050919050565b7f4e487b7100000000000000000000000000000000000000000000000000000000600052602260045260246000fd5b600060028204905060018216806200034357607f821691505b602082108103620003595762000358620002fb565b5b50919050565b60008190508160005260206000209050919050565b60006020601f8301049050919050565b60008160020a8302905092915050565b600060088302620003c67fffffffffffffffffffffffffffffffffffffffffffffffffffffffffffffffff8262000384565b620003d2868362000384565b95508019841693508086168417925050509392505050565b6000819050919050565b6000819050919050565b60006200041f620004196200041384620003ea565b620003f4565b620003ea565b9050919050565b6000819050919050565b6200043b83620003fe565b620004536200044a8262000426565b84845462000394565b825550505050565b600090565b6200046a6200045b565b6200047781848462000430565b505050565b5b818110156200049f576200049360008262000460565b6001810190506200047d565b5050565b601f821115620004ee57620004b8816200035f565b620004c38462000374565b81016020851015620004d3578190505b620004eb620004e28562000374565b8301826200047c565b50505b505050565b60008160020a8304905092915050565b60006200051660001984600802620004f3565b1980831691505092915050565b600062000531838362000503565b9150826002028217905092915050565b6200054c82620002f0565b67ffffffffffffffff811115620005685762000567620000c1565b5b6200057482546200032a565b62000581828285620004a3565b600060209050601f831160018114620005b95760008415620005a4578287015190505b620005b0858262000523565b86555062000620565b601f198416620005c9866200035f565b60005b82811015620005f357848901518255600182019150602085019450602081019050620005cc565b868310156200061357848901516200060f601f89168262000503565b8355505b6001600288020188555050505b505050505050565b61205d80620006386000396000f3fe608060405260043610610114576000357c0100000000000000000000000000000000000000000000000000000000900480635d58a74a116100a7578063bdaea32611610076578063bdaea32614610366578063d68895d81461038f578063dfbf53ae146103ba578063f25266dd146103e857610159565b80635d58a74a146102ba5780637752045b146102e55780638b5b9ccc14610310578063aa1ddd201461033b57610159565b8063329bfc33116100e3578063329bfc33146101e7578063481c6a75146102145780635832d5711461023f5780635c12cd4b1461027c57610159565b806310c85fe51461015e57806314034bd2146101895780631d27769f146101a057806323d14149146101bc57610159565b36610159576101576040518060400160405280600781526020017f556e6b6e6f776e00000000000000000000000000000000000000000000000000815250610425565b005b600080fd5b34801561016a57600080fd5b50610173610821565b60405161018091906113e7565b60405180910390f35b34801561019557600080fd5b5061019e610834565b005b6101ba60048036038101906101b5919061155c565b610425565b005b3480156101c857600080fd5b506101d1610c16565b6040516101de9190611624565b60405180910390f35b3480156101f357600080fd5b506101fc610ca4565b60405161020b939291906116a0565b60405180910390f35b34801561022057600080fd5b50610229610d71565b60405161023691906116de565b60405180910390f35b34801561024b57600080fd5b5061026660048036038101906102619190611725565b610d97565b60405161027391906116de565b60405180910390f35b34801561028857600080fd5b506102a3600480360381019061029e919061177e565b610dd6565b6040516102b19291906117ab565b60405180910390f35b3480156102c657600080fd5b506102cf610f1f565b6040516102dc91906117db565b60405180910390f35b3480156102f157600080fd5b506102fa610f25565b60405161030791906117db565b60405180910390f35b34801561031c57600080fd5b50610325610f2b565b60405161033291906118b4565b60405180910390f35b34801561034757600080fd5b50610350610fb9565b60405161035d91906117db565b60405180910390f35b34801561037257600080fd5b5061038d600480360381019061038891906118d6565b610fc6565b005b34801561039b57600080fd5b506103a461106d565b6040516103b191906117db565b60405180910390f35b3480156103c657600080fd5b506103cf61108c565b6040516103df9493929190611916565b60405180910390f35b3480156103f457600080fd5b5061040f600480360381019061040a9190611725565b611152565b60405161041c9190611983565b60405180910390f35b600081511161043357600080fd5b600960009054906101000a900460ff1661044c57600080fd5b670de0b6b3a7640000600b5461046291906119cd565b341461046d57600080fd5b600a54600360003373ffffffffffffffffffffffffffffffffffffffff1673ffffffffffffffffffffffffffffffffffffffff16815260200190815260200160002060010154106104bd57600080fd5b6104c633611191565b156106a4576001600360003373ffffffffffffffffffffffffffffffffffffffff1673ffffffffffffffffffffffffffffffffffffffff1681526020019081526020016000206001018190555080600360003373ffffffffffffffffffffffffffffffffffffffff1673ffffffffffffffffffffffffffffffffffffffff16815260200190815260200160002060000190816105629190611c39565b5033600360003373ffffffffffffffffffffffffffffffffffffffff1673ffffffffffffffffffffffffffffffffffffffff16815260200190815260200160002060030160006101000a81548173ffffffffffffffffffffffffffffffffffffffff021916908373ffffffffffffffffffffffffffffffffffffffff1602179055506002339080600181540180825580915050600190039060005260206000200160009091909190916101000a81548173ffffffffffffffffffffffffffffffffffffffff021916908373ffffffffffffffffffffffffffffffffffffffff16021790555060016002805490506106599190611d0b565b600360003373ffffffffffffffffffffffffffffffffffffffff1673ffffffffffffffffffffffffffffffffffffffff168152602001908152602001600020600201819055506106ff565b6001600360003373ffffffffffffffffffffffffffffffffffffffff1673ffffffffffffffffffffffffffffffffffffffff16815260200190815260200160002060010160008282546106f79190611d3f565b925050819055505b6004339080600181540180825580915050600190039060005260206000200160009091909190916101000a81548173ffffffffffffffffffffffffffffffffffffffff021916908373ffffffffffffffffffffffffffffffffffffffff1602179055507f76041b6e8130995874e79e751d284536c37242cb014fb0584ede1d1e64ce03c9600360003373ffffffffffffffffffffffffffffffffffffffff1673ffffffffffffffffffffffffffffffffffffffff168152602001908152602001600020600001600360003373ffffffffffffffffffffffffffffffffffffffff1673ffffffffffffffffffffffffffffffffffffffff16815260200190815260200160002060010154604051610816929190611df7565b60405180910390a150565b600960009054906101000a900460ff1681565b600160009054906101000a900473ffffffffffffffffffffffffffffffffffffffff1673ffffffffffffffffffffffffffffffffffffffff163373ffffffffffffffffffffffffffffffffffffffff161461088e57600080fd5b6000600480549050116108a057600080fd5b60006004805490506108b0611260565b6108ba9190611e56565b9050600481815481106108d0576108cf611e87565b5b9060005260206000200160009054906101000a900473ffffffffffffffffffffffffffffffffffffffff1673ffffffffffffffffffffffffffffffffffffffff166108fc3073ffffffffffffffffffffffffffffffffffffffff16319081150290604051600060405180830381858888f19350505050158015610957573d6000803e3d6000fd5b5060036000600483815481106109705761096f611e87565b5b9060005260206000200160009054906101000a900473ffffffffffffffffffffffffffffffffffffffff1673ffffffffffffffffffffffffffffffffffffffff1673ffffffffffffffffffffffffffffffffffffffff168152602001908152602001600020600001600560000190816109e99190611ee1565b506003600060048381548110610a0257610a01611e87565b5b9060005260206000200160009054906101000a900473ffffffffffffffffffffffffffffffffffffffff1673ffffffffffffffffffffffffffffffffffffffff1673ffffffffffffffffffffffffffffffffffffffff1681526020019081526020016000206001015460056001018190555060048181548110610a8857610a87611e87565b5b9060005260206000200160009054906101000a900473ffffffffffffffffffffffffffffffffffffffff16600560030160006101000a81548173ffffffffffffffffffffffffffffffffffffffff021916908373ffffffffffffffffffffffffffffffffffffffff160217905550600067ffffffffffffffff811115610b1157610b10611431565b5b604051908082528060200260200182016040528015610b3f5781602001602082028036833780820191505090505b5060049080519060200190610b5592919061129b565b50600067ffffffffffffffff811115610b7157610b70611431565b5b604051908082528060200260200182016040528015610b9f5781602001602082028036833780820191505090505b5060029080519060200190610bb5929190611325565b506000600960006101000a81548160ff0219169083151502179055507fd6d1eeba639254bd05e36261ae299af245328ab997fd9b7823d5fff17f1b74a46005600001600560010154604051610c0b929190611df7565b60405180910390a150565b60008054610c2390611a56565b80601f0160208091040260200160405190810160405280929190818152602001828054610c4f90611a56565b8015610c9c5780601f10610c7157610100808354040283529160200191610c9c565b820191906000526020600020905b815481529060010190602001808311610c7f57829003601f168201915b505050505081565b60606000806005600001600560010154600560030160009054906101000a900473ffffffffffffffffffffffffffffffffffffffff16828054610ce690611a56565b80601f0160208091040260200160405190810160405280929190818152602001828054610d1290611a56565b8015610d5f5780601f10610d3457610100808354040283529160200191610d5f565b820191906000526020600020905b815481529060010190602001808311610d4257829003601f168201915b50505050509250925092509250909192565b600160009054906101000a900473ffffffffffffffffffffffffffffffffffffffff1681565b60028181548110610da757600080fd5b906000526020600020016000915054906101000a900473ffffffffffffffffffffffffffffffffffffffff1681565b60606000610de383611191565b15610e04576000604051806020016040528060008152509091509150610f1a565b600360008473ffffffffffffffffffffffffffffffffffffffff1673ffffffffffffffffffffffffffffffffffffffff168152602001908152602001600020600001600360008573ffffffffffffffffffffffffffffffffffffffff1673ffffffffffffffffffffffffffffffffffffffff16815260200190815260200160002060010154818054610e9590611a56565b80601f0160208091040260200160405190810160405280929190818152602001828054610ec190611a56565b8015610f0e5780601f10610ee357610100808354040283529160200191610f0e565b820191906000526020600020905b815481529060010190602001808311610ef157829003601f168201915b50505050509150915091505b915091565b600b5481565b600a5481565b60606002805480602002602001604051908101604052809291908181526020018280548015610faf57602002820191906000526020600020905b8160009054906101000a900473ffffffffffffffffffffffffffffffffffffffff1673ffffffffffffffffffffffffffffffffffffffff1681526020019060010190808311610f65575b5050505050905090565b6000600480549050905090565b600160009054906101000a900473ffffffffffffffffffffffffffffffffffffffff1673ffffffffffffffffffffffffffffffffffffffff163373ffffffffffffffffffffffffffffffffffffffff161461102057600080fd5b6001600960006101000a81548160ff02191690831515021790555060008214611049578161104c565b60015b600a81905550600081146110605780611063565b60015b600b819055505050565b60003073ffffffffffffffffffffffffffffffffffffffff1631905090565b600580600001805461109d90611a56565b80601f01602080910402602001604051908101604052809291908181526020018280546110c990611a56565b80156111165780601f106110eb57610100808354040283529160200191611116565b820191906000526020600020905b8154815290600101906020018083116110f957829003601f168201915b5050505050908060010154908060020154908060030160009054906101000a900473ffffffffffffffffffffffffffffffffffffffff16905084565b6004818154811061116257600080fd5b906000526020600020016000915054906101000a900473ffffffffffffffffffffffffffffffffffffffff1681565b600080600280549050036111a8576001905061125b565b8173ffffffffffffffffffffffffffffffffffffffff166002600360008573ffffffffffffffffffffffffffffffffffffffff1673ffffffffffffffffffffffffffffffffffffffff168152602001908152602001600020600201548154811061121557611214611e87565b5b9060005260206000200160009054906101000a900473ffffffffffffffffffffffffffffffffffffffff1673ffffffffffffffffffffffffffffffffffffffff16141590505b919050565b6000444260048054905060405160200161127c93929190611fea565b6040516020818303038152906040528051906020012060019004905090565b828054828255906000526020600020908101928215611314579160200282015b828111156113135782518260006101000a81548173ffffffffffffffffffffffffffffffffffffffff021916908373ffffffffffffffffffffffffffffffffffffffff160217905550916020019190600101906112bb565b5b50905061132191906113af565b5090565b82805482825590600052602060002090810192821561139e579160200282015b8281111561139d5782518260006101000a81548173ffffffffffffffffffffffffffffffffffffffff021916908373ffffffffffffffffffffffffffffffffffffffff16021790555091602001919060010190611345565b5b5090506113ab91906113af565b5090565b5b808211156113c85760008160009055506001016113b0565b5090565b60008115159050919050565b6113e1816113cc565b82525050565b60006020820190506113fc60008301846113d8565b92915050565b6000604051905090565b600080fd5b600080fd5b600080fd5b600080fd5b6000601f19601f8301169050919050565b7f4e487b7100000000000000000000000000000000000000000000000000000000600052604160045260246000fd5b61146982611420565b810181811067ffffffffffffffff8211171561148857611487611431565b5b80604052505050565b600061149b611402565b90506114a78282611460565b919050565b600067ffffffffffffffff8211156114c7576114c6611431565b5b6114d082611420565b9050602081019050919050565b82818337600083830152505050565b60006114ff6114fa846114ac565b611491565b90508281526020810184848401111561151b5761151a61141b565b5b6115268482856114dd565b509392505050565b600082601f83011261154357611542611416565b5b81356115538482602086016114ec565b91505092915050565b6000602082840312156115725761157161140c565b5b600082013567ffffffffffffffff8111156115905761158f611411565b5b61159c8482850161152e565b91505092915050565b600081519050919050565b600082825260208201905092915050565b60005b838110156115df5780820151818401526020810190506115c4565b60008484015250505050565b60006115f6826115a5565b61160081856115b0565b93506116108185602086016115c1565b61161981611420565b840191505092915050565b6000602082019050818103600083015261163e81846115eb565b905092915050565b6000819050919050565b61165981611646565b82525050565b600073ffffffffffffffffffffffffffffffffffffffff82169050919050565b600061168a8261165f565b9050919050565b61169a8161167f565b82525050565b600060608201905081810360008301526116ba81866115eb565b90506116c96020830185611650565b6116d66040830184611691565b949350505050565b60006020820190506116f36000830184611691565b92915050565b61170281611646565b811461170d57600080fd5b50565b60008135905061171f816116f9565b92915050565b60006020828403121561173b5761173a61140c565b5b600061174984828501611710565b91505092915050565b61175b8161167f565b811461176657600080fd5b50565b60008135905061177881611752565b92915050565b6000602082840312156117945761179361140c565b5b60006117a284828501611769565b91505092915050565b600060408201905081810360008301526117c581856115eb565b90506117d46020830184611650565b9392505050565b60006020820190506117f06000830184611650565b92915050565b600081519050919050565b600082825260208201905092915050565b6000819050602082019050919050565b61182b8161167f565b82525050565b600061183d8383611822565b60208301905092915050565b6000602082019050919050565b6000611861826117f6565b61186b8185611801565b935061187683611812565b8060005b838110156118a757815161188e8882611831565b975061189983611849565b92505060018101905061187a565b5085935050505092915050565b600060208201905081810360008301526118ce8184611856565b905092915050565b600080604083850312156118ed576118ec61140c565b5b60006118fb85828601611710565b925050602061190c85828601611710565b9150509250929050565b6000608082019050818103600083015261193081876115eb565b905061193f6020830186611650565b61194c6040830185611650565b6119596060830184611691565b95945050505050565b600061196d8261165f565b9050919050565b61197d81611962565b82525050565b60006020820190506119986000830184611974565b92915050565b7f4e487b7100000000000000000000000000000000000000000000000000000000600052601160045260246000fd5b60006119d882611646565b91506119e383611646565b9250817fffffffffffffffffffffffffffffffffffffffffffffffffffffffffffffffff0483118215151615611a1c57611a1b61199e565b5b828202905092915050565b7f4e487b7100000000000000000000000000000000000000000000000000000000600052602260045260246000fd5b60006002820490506001821680611a6e57607f821691505b602082108103611a8157611a80611a27565b5b50919050565b60008190508160005260206000209050919050565b60006020601f8301049050919050565b60008160020a8302905092915050565b600060088302611aec7fffffffffffffffffffffffffffffffffffffffffffffffffffffffffffffffff82611aac565b611af68683611aac565b95508019841693508086168417925050509392505050565b6000819050919050565b6000611b33611b2e611b2984611646565b611b0e565b611646565b9050919050565b6000819050919050565b611b4d83611b18565b611b61611b5982611b3a565b848454611abc565b825550505050565b600090565b611b76611b69565b611b81818484611b44565b505050565b5b81811015611ba557611b9a600082611b6e565b600181019050611b87565b5050565b601f821115611bea57611bbb81611a87565b611bc484611a9c565b81016020851015611bd3578190505b611be7611bdf85611a9c565b830182611b86565b50505b505050565b60008160020a8304905092915050565b6000611c1060001984600802611bef565b1980831691505092915050565b6000611c298383611bff565b9150826002028217905092915050565b611c42826115a5565b67ffffffffffffffff811115611c5b57611c5a611431565b5b611c658254611a56565b611c70828285611ba9565b600060209050601f831160018114611ca35760008415611c91578287015190505b611c9b8582611c1d565b865550611d03565b601f198416611cb186611a87565b60005b82811015611cd957848901518255600182019150602085019450602081019050611cb4565b86831015611cf65784890151611cf2601f891682611bff565b8355505b6001600288020188555050505b505050505050565b6000611d1682611646565b9150611d2183611646565b9250828203905081811115611d3957611d3861199e565b5b92915050565b6000611d4a82611646565b9150611d5583611646565b9250828201905080821115611d6d57611d6c61199e565b5b92915050565b60008154611d8081611a56565b611d8a81866115b0565b94506001821660008114611da55760018114611dbb57611dee565b60ff198316865281151560200286019350611dee565b611dc485611a87565b60005b83811015611de657815481890152600182019150602081019050611dc7565b808801955050505b50505092915050565b60006040820190508181036000830152611e118185611d73565b9050611e206020830184611650565b9392505050565b7f4e487b7100000000000000000000000000000000000000000000000000000000600052601260045260246000fd5b6000611e6182611646565b9150611e6c83611646565b925082611e7c57611e7b611e27565b5b828206905092915050565b7f4e487b7100000000000000000000000000000000000000000000000000000000600052603260045260246000fd5b600081549050611ec581611a56565b9050919050565b60008190508160005260206000209050919050565b818103611eef575050611fc7565b611ef882611eb6565b67ffffffffffffffff811115611f1157611f10611431565b5b611f1b8254611a56565b611f26828285611ba9565b6000601f831160018114611f555760008415611f43578287015490505b611f4d8582611c1d565b865550611fc0565b601f198416611f6387611ecc565b9650611f6e86611a87565b60005b82811015611f9657848901548255600182019150600185019450602081019050611f71565b86831015611fb35784890154611faf601f891682611bff565b8355505b6001600288020188555050505b5050505050505b565b6000819050919050565b611fe4611fdf82611646565b611fc9565b82525050565b6000611ff68286611fd3565b6020820191506120068285611fd3565b6020820191506120168284611fd3565b60208201915081905094935050505056fea2646970667358221220ba64eed15411d29409ac7d27a0984a91c6ef9cfc0d35b06ea182720a216802a364736f6c63430008100033",
  "immutableReferences": {},
  "source": "// SPDX-License-Identifier: MIT\r\npragma solidity >=0.4.22 <0.9.0;\r\n\r\ncontract LotteryGenerator {\r\n    address[] public lotteries;\r\n    struct lottery{\r\n        uint index;\r\n        address manager;\r\n    }\r\n    mapping(address => lottery) lotteryStructs;\r\n\r\n    function createLottery(string memory name) public {\r\n        require(bytes(name).length > 0);\r\n        Lottery newLottery = new Lottery(name, msg.sender);\r\n        lotteries.push(address(newLottery));\r\n        lotteryStructs[address(newLottery)].index = lotteries.length- 1;\r\n        lotteryStructs[address(newLottery)].manager = msg.sender;\r\n\r\n        // event\r\n        emit LotteryCreated(address(newLottery));\r\n    }\r\n\r\n    function getLotteries() public view returns(address[] memory) {\r\n        return lotteries;\r\n    }\r\n\r\n    function deleteLottery(address lotteryAddress) public {\r\n        require(msg.sender == lotteryStructs[lotteryAddress].manager);\r\n        uint indexToDelete = lotteryStructs[lotteryAddress].index;\r\n        address lastAddress = lotteries[lotteries.length - 1];\r\n        lotteries[indexToDelete] = lastAddress;\r\n        delete lotteries[indexToDelete];\r\n        // lotteries.length--;\r\n    }\r\n\r\n    // Events\r\n    event LotteryCreated(\r\n        address lotteryAddress\r\n    );\r\n}\r\n\r\ncontract Lottery {\r\n    // name of the lottery\r\n    string public lotteryName;\r\n    // Creator of the lottery contract\r\n    address public manager;\r\n\r\n    // variables for players\r\n    struct Player {\r\n        string name;\r\n        uint entryCount;\r\n        uint index;\r\n        address adrs;\r\n    }\r\n    address[] public addressIndexes;\r\n    mapping(address => Player) players;\r\n    address payable[] public lotteryBag;\r\n\r\n    // Variables for lottery information\r\n    Player public winner;\r\n    bool public isLotteryLive;\r\n    uint public maxEntriesForPlayer;\r\n    uint public ethToParticipate;\r\n\r\n    // constructor\r\n    constructor(string memory name, address creator){\r\n        manager = creator;\r\n        lotteryName = name;\r\n    }\r\n\r\n    // Let users participate by sending eth directly to contract address\r\n    receive() external payable {\r\n        // player name will be unknown\r\n        participate(\"Unknown\");\r\n    }\r\n\r\n    function participate(string memory playerName) public payable {\r\n        require(bytes(playerName).length > 0);\r\n        require(isLotteryLive);\r\n        require(msg.value == ethToParticipate * 1 ether);\r\n        require(players[msg.sender].entryCount < maxEntriesForPlayer);\r\n\r\n        if (isNewPlayer(msg.sender)) {\r\n            players[msg.sender].entryCount = 1;\r\n            players[msg.sender].name = playerName;\r\n            players[msg.sender].adrs = msg.sender;\r\n            addressIndexes.push(msg.sender);\r\n            players[msg.sender].index = addressIndexes.length- 1;\r\n        } else {\r\n            players[msg.sender].entryCount += 1;\r\n        }\r\n\r\n        lotteryBag.push(payable(msg.sender));\r\n    \r\n        // event\r\n        emit PlayerParticipated(players[msg.sender].name, players[msg.sender].entryCount);\r\n    }\r\n\r\n    function activateLottery(uint maxEntries, uint ethRequired) public restricted {\r\n        isLotteryLive = true;\r\n        maxEntriesForPlayer = maxEntries == 0 ? 1: maxEntries;\r\n        ethToParticipate = ethRequired == 0 ? 1: ethRequired;\r\n    }\r\n\r\n    function declareWinner() public restricted{\r\n        require(lotteryBag.length > 0);\r\n\r\n        uint index = generateRandomNumber() % lotteryBag.length;\r\n        \r\n        lotteryBag[index].transfer(address(this).balance);\r\n         \r\n        winner.name = players[lotteryBag[index]].name;\r\n        winner.entryCount = players[lotteryBag[index]].entryCount;\r\n        winner.adrs = lotteryBag[index];\r\n        // empty the lottery bag and indexAddresses\r\n        lotteryBag = new address payable[](0);\r\n        addressIndexes = new address[](0);\r\n\r\n        // Mark the lottery inactive\r\n        isLotteryLive = false;\r\n    \r\n        // event\r\n        emit WinnerDeclared(winner.name, winner.entryCount);\r\n    }\r\n\r\n    function getPlayers() public view returns(address[] memory) {\r\n        return addressIndexes;\r\n    }\r\n\r\n    function getLotterySoldCount() public view returns(uint) {\r\n        return lotteryBag.length;\r\n    }\r\n\r\n    function getPlayer(address playerAddress) public view returns (string memory, uint) {\r\n        if (isNewPlayer(playerAddress)) {\r\n            return (\"\", 0);\r\n        }\r\n        return (players[playerAddress].name, players[playerAddress].entryCount);\r\n    }\r\n\r\n    function getWinningPrice() public view returns (uint) {\r\n        return address(this).balance;\r\n    }\r\n\r\n    function getCurrentWinner() public view returns (string memory, uint,address) {\r\n        return (winner.name,winner.entryCount,winner.adrs);\r\n    }\r\n\r\n    // Private functions\r\n    function isNewPlayer(address playerAddress) private view returns(bool) {\r\n        if (addressIndexes.length == 0) {\r\n            return true;\r\n        }\r\n        return (addressIndexes[players[playerAddress].index] != playerAddress);\r\n    }\r\n\r\n    // NOTE: This should not be used for generating random number in real world\r\n    function generateRandomNumber() private view returns(uint) {\r\n        // return uint(keccak256(block.difficulty, now, block.timestamp.length));\r\n        return uint(keccak256(abi.encodePacked(block.difficulty,block.timestamp,lotteryBag.length)));\r\n    }\r\n\r\n    // Modifiers\r\n    modifier restricted() {\r\n        require(msg.sender == manager);\r\n        _;\r\n    }\r\n\r\n    // Events\r\n    event WinnerDeclared( string name, uint entryCount );\r\n    event PlayerParticipated( string name, uint entryCount );\r\n}",
  "sourcePath": "D:\\Flutter Projects\\lottery_advance\\contracts\\Lottery_Advance.sol",
  "compiler": {
    "name": "solc",
    "version": "0.8.16+commit.07a7930e.Emscripten.clang"
  },
  "schemaVersion": "3.4.9",
  "updatedAt": "2022-08-30T16:25:26.735Z",
  "devdoc": {
    "kind": "dev",
    "methods": {},
    "version": 1
  },
  "userdoc": {
    "kind": "user",
    "methods": {},
    "version": 1
  }
}